{
  "contractName": "CocktailToken_Contract",
  "abi": [
    {
      "inputs": [],
      "stateMutability": "nonpayable",
      "type": "constructor"
    },
    {
      "anonymous": false,
      "inputs": [
        {
          "indexed": true,
          "internalType": "address",
          "name": "owner",
          "type": "address"
        },
        {
          "indexed": true,
          "internalType": "address",
          "name": "spender",
          "type": "address"
        },
        {
          "indexed": false,
          "internalType": "uint256",
          "name": "value",
          "type": "uint256"
        }
      ],
      "name": "Approve",
      "type": "event"
    },
    {
      "anonymous": false,
      "inputs": [
        {
          "indexed": true,
          "internalType": "address",
          "name": "from",
          "type": "address"
        },
        {
          "indexed": false,
          "internalType": "uint256",
          "name": "value",
          "type": "uint256"
        }
      ],
      "name": "Burn",
      "type": "event"
    },
    {
      "anonymous": false,
      "inputs": [
        {
          "indexed": true,
          "internalType": "address",
          "name": "to",
          "type": "address"
        },
        {
          "indexed": false,
          "internalType": "uint256",
          "name": "amount",
          "type": "uint256"
        }
      ],
      "name": "Mint",
      "type": "event"
    },
    {
      "anonymous": false,
      "inputs": [
        {
          "indexed": true,
          "internalType": "address",
          "name": "previousOwner",
          "type": "address"
        },
        {
          "indexed": true,
          "internalType": "address",
          "name": "newOwner",
          "type": "address"
        }
      ],
      "name": "OwnershipTransferred",
      "type": "event"
    },
    {
      "anonymous": false,
      "inputs": [
        {
          "indexed": true,
          "internalType": "address",
          "name": "addr",
          "type": "address"
        },
        {
          "indexed": false,
          "internalType": "bool",
          "name": "isWhitelist",
          "type": "bool"
        }
      ],
      "name": "SetBlacklist",
      "type": "event"
    },
    {
      "anonymous": false,
      "inputs": [
        {
          "indexed": true,
          "internalType": "address",
          "name": "addr",
          "type": "address"
        },
        {
          "indexed": false,
          "internalType": "bool",
          "name": "isWhitelist",
          "type": "bool"
        }
      ],
      "name": "SetWhitelist",
      "type": "event"
    },
    {
      "anonymous": false,
      "inputs": [
        {
          "indexed": true,
          "internalType": "address",
          "name": "from",
          "type": "address"
        },
        {
          "indexed": true,
          "internalType": "address",
          "name": "to",
          "type": "address"
        },
        {
          "indexed": false,
          "internalType": "uint256",
          "name": "value",
          "type": "uint256"
        }
      ],
      "name": "Transfer",
      "type": "event"
    },
    {
      "inputs": [
        {
          "internalType": "address",
          "name": "",
          "type": "address"
        },
        {
          "internalType": "address",
          "name": "",
          "type": "address"
        }
      ],
      "name": "_allowances",
      "outputs": [
        {
          "internalType": "uint256",
          "name": "",
          "type": "uint256"
        }
      ],
      "stateMutability": "view",
      "type": "function"
    },
    {
      "inputs": [
        {
          "internalType": "address",
          "name": "",
          "type": "address"
        }
      ],
      "name": "_balances",
      "outputs": [
        {
          "internalType": "uint256",
          "name": "",
          "type": "uint256"
        }
      ],
      "stateMutability": "view",
      "type": "function"
    },
    {
      "inputs": [],
      "name": "_totalSupply",
      "outputs": [
        {
          "internalType": "uint256",
          "name": "",
          "type": "uint256"
        }
      ],
      "stateMutability": "view",
      "type": "function"
    },
    {
      "inputs": [],
      "name": "decimals",
      "outputs": [
        {
          "internalType": "uint8",
          "name": "",
          "type": "uint8"
        }
      ],
      "stateMutability": "view",
      "type": "function"
    },
    {
      "inputs": [],
      "name": "maxTxAmount",
      "outputs": [
        {
          "internalType": "uint256",
          "name": "",
          "type": "uint256"
        }
      ],
      "stateMutability": "view",
      "type": "function"
    },
    {
      "inputs": [],
      "name": "maxWalletAmount",
      "outputs": [
        {
          "internalType": "uint256",
          "name": "",
          "type": "uint256"
        }
      ],
      "stateMutability": "view",
      "type": "function"
    },
    {
      "inputs": [],
      "name": "name",
      "outputs": [
        {
          "internalType": "string",
          "name": "",
          "type": "string"
        }
      ],
      "stateMutability": "view",
      "type": "function"
    },
    {
      "inputs": [],
      "name": "owner",
      "outputs": [
        {
          "internalType": "address payable",
          "name": "",
          "type": "address"
        }
      ],
      "stateMutability": "view",
      "type": "function"
    },
    {
      "inputs": [],
      "name": "symbol",
      "outputs": [
        {
          "internalType": "string",
          "name": "",
          "type": "string"
        }
      ],
      "stateMutability": "view",
      "type": "function"
    },
    {
      "inputs": [
        {
          "internalType": "address",
          "name": "newOwner",
          "type": "address"
        }
      ],
      "name": "transferOwnership",
      "outputs": [],
      "stateMutability": "nonpayable",
      "type": "function"
    },
    {
      "inputs": [
        {
          "internalType": "address",
          "name": "_to",
          "type": "address"
        },
        {
          "internalType": "uint256",
          "name": "_value",
          "type": "uint256"
        }
      ],
      "name": "transfer",
      "outputs": [
        {
          "internalType": "bool",
          "name": "success",
          "type": "bool"
        }
      ],
      "stateMutability": "nonpayable",
      "type": "function"
    },
    {
      "inputs": [
        {
          "internalType": "address",
          "name": "_from",
          "type": "address"
        },
        {
          "internalType": "address",
          "name": "_to",
          "type": "address"
        },
        {
          "internalType": "uint256",
          "name": "_value",
          "type": "uint256"
        }
      ],
      "name": "transferFrom",
      "outputs": [
        {
          "internalType": "bool",
          "name": "success",
          "type": "bool"
        }
      ],
      "stateMutability": "nonpayable",
      "type": "function"
    },
    {
      "inputs": [
        {
          "internalType": "address",
          "name": "_spender",
          "type": "address"
        },
        {
          "internalType": "uint256",
          "name": "_value",
          "type": "uint256"
        }
      ],
      "name": "approve",
      "outputs": [
        {
          "internalType": "bool",
          "name": "success",
          "type": "bool"
        }
      ],
      "stateMutability": "nonpayable",
      "type": "function"
    },
    {
      "inputs": [
        {
          "internalType": "uint256",
          "name": "_amount",
          "type": "uint256"
        }
      ],
      "name": "mint",
      "outputs": [
        {
          "internalType": "bool",
          "name": "success",
          "type": "bool"
        }
      ],
      "stateMutability": "nonpayable",
      "type": "function"
    },
    {
      "inputs": [
        {
          "internalType": "uint256",
          "name": "_amount",
          "type": "uint256"
        }
      ],
      "name": "burn",
      "outputs": [
        {
          "internalType": "bool",
          "name": "success",
          "type": "bool"
        }
      ],
      "stateMutability": "nonpayable",
      "type": "function"
    },
    {
      "inputs": [
        {
          "internalType": "address",
          "name": "_user",
          "type": "address"
        }
      ],
      "name": "addToBlackList",
      "outputs": [],
      "stateMutability": "nonpayable",
      "type": "function"
    },
    {
      "inputs": [
        {
          "internalType": "address",
          "name": "_user",
          "type": "address"
        }
      ],
      "name": "removeFromBlacklist",
      "outputs": [],
      "stateMutability": "nonpayable",
      "type": "function"
    },
    {
      "inputs": [
        {
          "internalType": "address",
          "name": "_user",
          "type": "address"
        }
      ],
      "name": "addToWhiteList",
      "outputs": [],
      "stateMutability": "nonpayable",
      "type": "function"
    },
    {
      "inputs": [
        {
          "internalType": "address",
          "name": "_user",
          "type": "address"
        }
      ],
      "name": "removeFromWhiteList",
      "outputs": [],
      "stateMutability": "nonpayable",
      "type": "function"
    },
    {
      "inputs": [],
      "name": "totalSupply",
      "outputs": [
        {
          "internalType": "uint256",
          "name": "",
          "type": "uint256"
        }
      ],
      "stateMutability": "view",
      "type": "function"
    },
    {
      "inputs": [
        {
          "internalType": "address",
          "name": "account",
          "type": "address"
        }
      ],
      "name": "balanceOf",
      "outputs": [
        {
          "internalType": "uint256",
          "name": "",
          "type": "uint256"
        }
      ],
      "stateMutability": "view",
      "type": "function"
    },
    {
      "inputs": [
        {
          "internalType": "address",
          "name": "currentOwner",
          "type": "address"
        },
        {
          "internalType": "address",
          "name": "spender",
          "type": "address"
        }
      ],
      "name": "allowance",
      "outputs": [
        {
          "internalType": "uint256",
          "name": "remaining",
          "type": "uint256"
        }
      ],
      "stateMutability": "view",
      "type": "function"
    }
  ],
  "bytecode": "0x60806040526005600655600a6007556a084595161401484a0000006008556207a1206009553480156200003157600080fd5b506040518060400160405280600d81526020017f436f636b7461696c546f6b656e00000000000000000000000000000000000000815250600090805190602001906200007f92919062000487565b506040518060400160405280600381526020017f43434b000000000000000000000000000000000000000000000000000000000081525060019080519060200190620000cd92919062000487565b506012600260006101000a81548160ff021916908360ff1602179055506000600260009054906101000a900460ff16600a6200010a9190620006d1565b633b9aca006200011b919062000722565b905033600460006101000a81548173ffffffffffffffffffffffffffffffffffffffff021916908373ffffffffffffffffffffffffffffffffffffffff16021790555062000191600460009054906101000a900473ffffffffffffffffffffffffffffffffffffffff166200026d60201b60201c565b80600a6000600460009054906101000a900473ffffffffffffffffffffffffffffffffffffffff1673ffffffffffffffffffffffffffffffffffffffff1673ffffffffffffffffffffffffffffffffffffffff16815260200190815260200160002081905550806003819055503373ffffffffffffffffffffffffffffffffffffffff16600073ffffffffffffffffffffffffffffffffffffffff167fddf252ad1be2c89b69c2b068fc378daa952ba7f163c4a11628f55a4df523b3ef836040516200025e919062000794565b60405180910390a3506200096a565b600460009054906101000a900473ffffffffffffffffffffffffffffffffffffffff1673ffffffffffffffffffffffffffffffffffffffff163373ffffffffffffffffffffffffffffffffffffffff161462000300576040517f08c379a0000000000000000000000000000000000000000000000000000000008152600401620002f79062000838565b60405180910390fd5b600d60008273ffffffffffffffffffffffffffffffffffffffff1673ffffffffffffffffffffffffffffffffffffffff16815260200190815260200160002060009054906101000a900460ff161562000390576040517f08c379a00000000000000000000000000000000000000000000000000000000081526004016200038790620008aa565b60405180910390fd5b6001600d60008373ffffffffffffffffffffffffffffffffffffffff1673ffffffffffffffffffffffffffffffffffffffff16815260200190815260200160002060006101000a81548160ff0219169083151502179055508073ffffffffffffffffffffffffffffffffffffffff167ff6019ec0a78d156d249a1ec7579e2321f6ac7521d6e1d2eacf90ba4a184dcceb600d60008473ffffffffffffffffffffffffffffffffffffffff1673ffffffffffffffffffffffffffffffffffffffff16815260200190815260200160002060009054906101000a900460ff166040516200047c9190620008e9565b60405180910390a250565b828054620004959062000935565b90600052602060002090601f016020900481019282620004b9576000855562000505565b82601f10620004d457805160ff191683800117855562000505565b8280016001018555821562000505579182015b8281111562000504578251825591602001919060010190620004e7565b5b50905062000514919062000518565b5090565b5b808211156200053357600081600090555060010162000519565b5090565b7f4e487b7100000000000000000000000000000000000000000000000000000000600052601160045260246000fd5b60008160011c9050919050565b6000808291508390505b6001851115620005c5578086048111156200059d576200059c62000537565b5b6001851615620005ad5780820291505b8081029050620005bd8562000566565b94506200057d565b94509492505050565b600082620005e05760019050620006b3565b81620005f05760009050620006b3565b816001811462000609576002811462000614576200064a565b6001915050620006b3565b60ff84111562000629576200062862000537565b5b8360020a91508482111562000643576200064262000537565b5b50620006b3565b5060208310610133831016604e8410600b8410161715620006845782820a9050838111156200067e576200067d62000537565b5b620006b3565b62000693848484600162000573565b92509050818404811115620006ad57620006ac62000537565b5b81810290505b9392505050565b6000819050919050565b600060ff82169050919050565b6000620006de82620006ba565b9150620006eb83620006c4565b92506200071a7fffffffffffffffffffffffffffffffffffffffffffffffffffffffffffffffff8484620005ce565b905092915050565b60006200072f82620006ba565b91506200073c83620006ba565b9250817fffffffffffffffffffffffffffffffffffffffffffffffffffffffffffffffff048311821515161562000778576200077762000537565b5b828202905092915050565b6200078e81620006ba565b82525050565b6000602082019050620007ab600083018462000783565b92915050565b600082825260208201905092915050565b7f546869732066756e6374696f6e206973207265737472696374656420746f207460008201527f686520636f6e74726163742773206f776e65722e000000000000000000000000602082015250565b600062000820603483620007b1565b91506200082d82620007c2565b604082019050919050565b60006020820190508181036000830152620008538162000811565b9050919050565b7f5573657220697320616c72656164792077686974656c69737465642e00000000600082015250565b600062000892601c83620007b1565b91506200089f826200085a565b602082019050919050565b60006020820190508181036000830152620008c58162000883565b9050919050565b60008115159050919050565b620008e381620008cc565b82525050565b6000602082019050620009006000830184620008d8565b92915050565b7f4e487b7100000000000000000000000000000000000000000000000000000000600052602260045260246000fd5b600060028204905060018216806200094e57607f821691505b60208210810362000964576200096362000906565b5b50919050565b613994806200097a6000396000f3fe608060405234801561001057600080fd5b50600436106101425760003560e01c8063537df3b6116100b857806395d89b411161007c57806395d89b411461038b578063a0712d68146103a9578063a9059cbb146103d9578063aa4bde2814610409578063dd62ed3e14610427578063f2fde38b1461045757610142565b8063537df3b6146102d35780636ebcf607146102ef57806370a082311461031f5780638c0b5e221461034f5780638da5cb5b1461036d57610142565b806323b872dd1161010a57806323b872dd146101ff578063313ce5671461022f5780633eaaf86b1461024d578063417c73a71461026b57806342966c681461028757806347ee0394146102b757610142565b806301bf664814610147578063024c2ddd1461016357806306fdde0314610193578063095ea7b3146101b157806318160ddd146101e1575b600080fd5b610161600480360381019061015c9190612708565b610473565b005b61017d60048036038101906101789190612735565b610684565b60405161018a919061278e565b60405180910390f35b61019b6106a9565b6040516101a89190612842565b60405180910390f35b6101cb60048036038101906101c69190612890565b610737565b6040516101d891906128eb565b60405180910390f35b6101e96108b9565b6040516101f6919061278e565b60405180910390f35b61021960048036038101906102149190612906565b6108c3565b60405161022691906128eb565b60405180910390f35b610237610fa2565b6040516102449190612975565b60405180910390f35b610255610fb5565b604051610262919061278e565b60405180910390f35b61028560048036038101906102809190612708565b610fbb565b005b6102a1600480360381019061029c9190612990565b6111cd565b6040516102ae91906128eb565b60405180910390f35b6102d160048036038101906102cc9190612708565b611540565b005b6102ed60048036038101906102e89190612708565b611752565b005b61030960048036038101906103049190612708565b611963565b604051610316919061278e565b60405180910390f35b61033960048036038101906103349190612708565b61197b565b604051610346919061278e565b60405180910390f35b6103576119c4565b604051610364919061278e565b60405180910390f35b6103756119ca565b60405161038291906129de565b60405180910390f35b6103936119f0565b6040516103a09190612842565b60405180910390f35b6103c360048036038101906103be9190612990565b611a7e565b6040516103d091906128eb565b60405180910390f35b6103f360048036038101906103ee9190612890565b611c05565b60405161040091906128eb565b60405180910390f35b610411612221565b60405161041e919061278e565b60405180910390f35b610441600480360381019061043c9190612735565b612227565b60405161044e919061278e565b60405180910390f35b610471600480360381019061046c9190612708565b6122ae565b005b600460009054906101000a900473ffffffffffffffffffffffffffffffffffffffff1673ffffffffffffffffffffffffffffffffffffffff163373ffffffffffffffffffffffffffffffffffffffff1614610503576040517f08c379a00000000000000000000000000000000000000000000000000000000081526004016104fa90612a6b565b60405180910390fd5b600d60008273ffffffffffffffffffffffffffffffffffffffff1673ffffffffffffffffffffffffffffffffffffffff16815260200190815260200160002060009054906101000a900460ff1661058f576040517f08c379a000000000000000000000000000000000000000000000000000000000815260040161058690612ad7565b60405180910390fd5b6000600d60008373ffffffffffffffffffffffffffffffffffffffff1673ffffffffffffffffffffffffffffffffffffffff16815260200190815260200160002060006101000a81548160ff0219169083151502179055508073ffffffffffffffffffffffffffffffffffffffff167ff6019ec0a78d156d249a1ec7579e2321f6ac7521d6e1d2eacf90ba4a184dcceb600d60008473ffffffffffffffffffffffffffffffffffffffff1673ffffffffffffffffffffffffffffffffffffffff16815260200190815260200160002060009054906101000a900460ff1660405161067991906128eb565b60405180910390a250565b600b602052816000526040600020602052806000526040600020600091509150505481565b600080546106b690612b26565b80601f01602080910402602001604051908101604052809291908181526020018280546106e290612b26565b801561072f5780601f106107045761010080835404028352916020019161072f565b820191906000526020600020905b81548152906001019060200180831161071257829003601f168201915b505050505081565b6000600460009054906101000a900473ffffffffffffffffffffffffffffffffffffffff1673ffffffffffffffffffffffffffffffffffffffff163373ffffffffffffffffffffffffffffffffffffffff16146107c9576040517f08c379a00000000000000000000000000000000000000000000000000000000081526004016107c090612a6b565b60405180910390fd5b81600b60003373ffffffffffffffffffffffffffffffffffffffff1673ffffffffffffffffffffffffffffffffffffffff16815260200190815260200160002060008573ffffffffffffffffffffffffffffffffffffffff1673ffffffffffffffffffffffffffffffffffffffff168152602001908152602001600020819055508273ffffffffffffffffffffffffffffffffffffffff163373ffffffffffffffffffffffffffffffffffffffff167f6e11fb1b7f119e3f2fa29896ef5fdf8b8a2d0d4df6fe90ba8668e7d8b2ffa25e846040516108a7919061278e565b60405180910390a36001905092915050565b6000600354905090565b600080600a60003373ffffffffffffffffffffffffffffffffffffffff1673ffffffffffffffffffffffffffffffffffffffff1681526020019081526020016000205490506000600b60008773ffffffffffffffffffffffffffffffffffffffff1673ffffffffffffffffffffffffffffffffffffffff16815260200190815260200160002060003373ffffffffffffffffffffffffffffffffffffffff1673ffffffffffffffffffffffffffffffffffffffff1681526020019081526020016000205490506000600a60008773ffffffffffffffffffffffffffffffffffffffff1673ffffffffffffffffffffffffffffffffffffffff168152602001908152602001600020549050600073ffffffffffffffffffffffffffffffffffffffff168673ffffffffffffffffffffffffffffffffffffffff1603610a3c576040517f08c379a0000000000000000000000000000000000000000000000000000000008152600401610a3390612ba3565b60405180910390fd5b6000851015610a80576040517f08c379a0000000000000000000000000000000000000000000000000000000008152600401610a7790612c35565b60405180910390fd5b84831015610ac3576040517f08c379a0000000000000000000000000000000000000000000000000000000008152600401610aba90612ca1565b60405180910390fd5b84821015610b06576040517f08c379a0000000000000000000000000000000000000000000000000000000008152600401610afd90612d0d565b60405180910390fd5b600d60008773ffffffffffffffffffffffffffffffffffffffff1673ffffffffffffffffffffffffffffffffffffffff16815260200190815260200160002060009054906101000a900460ff16610ba657600854610b6482876124bd565b1115610ba5576040517f08c379a0000000000000000000000000000000000000000000000000000000008152600401610b9c90612d9f565b60405180910390fd5b5b600d60008873ffffffffffffffffffffffffffffffffffffffff1673ffffffffffffffffffffffffffffffffffffffff16815260200190815260200160002060009054906101000a900460ff16610c3d57600954851115610c3c576040517f08c379a0000000000000000000000000000000000000000000000000000000008152600401610c3390612e57565b60405180910390fd5b5b6000610c55610c4e876006546124bd565b606461253d565b90506000610c6387836125cc565b90508181610c719190612ea6565b8714610cb2576040517f08c379a0000000000000000000000000000000000000000000000000000000008152600401610ca990612f48565b60405180910390fd5b610cbc85886125cc565b600a60008b73ffffffffffffffffffffffffffffffffffffffff1673ffffffffffffffffffffffffffffffffffffffff16815260200190815260200160002081905550610d0983826124bd565b600a60008a73ffffffffffffffffffffffffffffffffffffffff1673ffffffffffffffffffffffffffffffffffffffff16815260200190815260200160002081905550610d5684886125cc565b600b60008b73ffffffffffffffffffffffffffffffffffffffff1673ffffffffffffffffffffffffffffffffffffffff16815260200190815260200160002060003373ffffffffffffffffffffffffffffffffffffffff1673ffffffffffffffffffffffffffffffffffffffff168152602001908152602001600020819055508773ffffffffffffffffffffffffffffffffffffffff168973ffffffffffffffffffffffffffffffffffffffff167fddf252ad1be2c89b69c2b068fc378daa952ba7f163c4a11628f55a4df523b3ef83604051610e33919061278e565b60405180910390a3610ea6600a6000600460009054906101000a900473ffffffffffffffffffffffffffffffffffffffff1673ffffffffffffffffffffffffffffffffffffffff1673ffffffffffffffffffffffffffffffffffffffff16815260200190815260200160002054836124bd565b600a6000600460009054906101000a900473ffffffffffffffffffffffffffffffffffffffff1673ffffffffffffffffffffffffffffffffffffffff1673ffffffffffffffffffffffffffffffffffffffff16815260200190815260200160002081905550600460009054906101000a900473ffffffffffffffffffffffffffffffffffffffff1673ffffffffffffffffffffffffffffffffffffffff163373ffffffffffffffffffffffffffffffffffffffff167fddf252ad1be2c89b69c2b068fc378daa952ba7f163c4a11628f55a4df523b3ef84604051610f8a919061278e565b60405180910390a36001955050505050509392505050565b600260009054906101000a900460ff1681565b60035481565b600460009054906101000a900473ffffffffffffffffffffffffffffffffffffffff1673ffffffffffffffffffffffffffffffffffffffff163373ffffffffffffffffffffffffffffffffffffffff161461104b576040517f08c379a000000000000000000000000000000000000000000000000000000000815260040161104290612a6b565b60405180910390fd5b600c60008273ffffffffffffffffffffffffffffffffffffffff1673ffffffffffffffffffffffffffffffffffffffff16815260200190815260200160002060009054906101000a900460ff16156110d8576040517f08c379a00000000000000000000000000000000000000000000000000000000081526004016110cf90612fb4565b60405180910390fd5b6001600c60008373ffffffffffffffffffffffffffffffffffffffff1673ffffffffffffffffffffffffffffffffffffffff16815260200190815260200160002060006101000a81548160ff0219169083151502179055508073ffffffffffffffffffffffffffffffffffffffff167ffed07c88bd5d31bfd0ce77ed7ffdc74a163a61cfc5edcec801e3a7954e33d6e7600c60008473ffffffffffffffffffffffffffffffffffffffff1673ffffffffffffffffffffffffffffffffffffffff16815260200190815260200160002060009054906101000a900460ff166040516111c291906128eb565b60405180910390a250565b60008073ffffffffffffffffffffffffffffffffffffffff163373ffffffffffffffffffffffffffffffffffffffff160361123d576040517f08c379a000000000000000000000000000000000000000000000000000000000815260040161123490613020565b60405180910390fd5b81600a60003373ffffffffffffffffffffffffffffffffffffffff1673ffffffffffffffffffffffffffffffffffffffff16815260200190815260200160002054116112be576040517f08c379a00000000000000000000000000000000000000000000000000000000081526004016112b59061308c565b60405180910390fd5b60008211611301576040517f08c379a00000000000000000000000000000000000000000000000000000000081526004016112f89061311e565b60405180910390fd5b60006113196113128460075461262b565b606461253d565b9050600061132784836125cc565b9050611394600a6000600460009054906101000a900473ffffffffffffffffffffffffffffffffffffffff1673ffffffffffffffffffffffffffffffffffffffff1673ffffffffffffffffffffffffffffffffffffffff16815260200190815260200160002054836124bd565b600a6000600460009054906101000a900473ffffffffffffffffffffffffffffffffffffffff1673ffffffffffffffffffffffffffffffffffffffff1673ffffffffffffffffffffffffffffffffffffffff16815260200190815260200160002081905550600460009054906101000a900473ffffffffffffffffffffffffffffffffffffffff1673ffffffffffffffffffffffffffffffffffffffff163373ffffffffffffffffffffffffffffffffffffffff167fddf252ad1be2c89b69c2b068fc378daa952ba7f163c4a11628f55a4df523b3ef84604051611478919061278e565b60405180910390a361149261148c3361197b565b826125cc565b600a60003373ffffffffffffffffffffffffffffffffffffffff1673ffffffffffffffffffffffffffffffffffffffff168152602001908152602001600020819055506114e1600354826125cc565b6003819055503373ffffffffffffffffffffffffffffffffffffffff167fcc16f5dbb4873280815c1ee09dbd06736cffcc184412cf7a71a0fdb75d397ca58260405161152d919061278e565b60405180910390a2600192505050919050565b600460009054906101000a900473ffffffffffffffffffffffffffffffffffffffff1673ffffffffffffffffffffffffffffffffffffffff163373ffffffffffffffffffffffffffffffffffffffff16146115d0576040517f08c379a00000000000000000000000000000000000000000000000000000000081526004016115c790612a6b565b60405180910390fd5b600d60008273ffffffffffffffffffffffffffffffffffffffff1673ffffffffffffffffffffffffffffffffffffffff16815260200190815260200160002060009054906101000a900460ff161561165d576040517f08c379a00000000000000000000000000000000000000000000000000000000081526004016116549061318a565b60405180910390fd5b6001600d60008373ffffffffffffffffffffffffffffffffffffffff1673ffffffffffffffffffffffffffffffffffffffff16815260200190815260200160002060006101000a81548160ff0219169083151502179055508073ffffffffffffffffffffffffffffffffffffffff167ff6019ec0a78d156d249a1ec7579e2321f6ac7521d6e1d2eacf90ba4a184dcceb600d60008473ffffffffffffffffffffffffffffffffffffffff1673ffffffffffffffffffffffffffffffffffffffff16815260200190815260200160002060009054906101000a900460ff1660405161174791906128eb565b60405180910390a250565b600460009054906101000a900473ffffffffffffffffffffffffffffffffffffffff1673ffffffffffffffffffffffffffffffffffffffff163373ffffffffffffffffffffffffffffffffffffffff16146117e2576040517f08c379a00000000000000000000000000000000000000000000000000000000081526004016117d990612a6b565b60405180910390fd5b600c60008273ffffffffffffffffffffffffffffffffffffffff1673ffffffffffffffffffffffffffffffffffffffff16815260200190815260200160002060009054906101000a900460ff1661186e576040517f08c379a0000000000000000000000000000000000000000000000000000000008152600401611865906131f6565b60405180910390fd5b6000600c60008373ffffffffffffffffffffffffffffffffffffffff1673ffffffffffffffffffffffffffffffffffffffff16815260200190815260200160002060006101000a81548160ff0219169083151502179055508073ffffffffffffffffffffffffffffffffffffffff167ffed07c88bd5d31bfd0ce77ed7ffdc74a163a61cfc5edcec801e3a7954e33d6e7600c60008473ffffffffffffffffffffffffffffffffffffffff1673ffffffffffffffffffffffffffffffffffffffff16815260200190815260200160002060009054906101000a900460ff1660405161195891906128eb565b60405180910390a250565b600a6020528060005260406000206000915090505481565b6000600a60008373ffffffffffffffffffffffffffffffffffffffff1673ffffffffffffffffffffffffffffffffffffffff168152602001908152602001600020549050919050565b60095481565b600460009054906101000a900473ffffffffffffffffffffffffffffffffffffffff1681565b600180546119fd90612b26565b80601f0160208091040260200160405190810160405280929190818152602001828054611a2990612b26565b8015611a765780601f10611a4b57610100808354040283529160200191611a76565b820191906000526020600020905b815481529060010190602001808311611a5957829003601f168201915b505050505081565b6000600460009054906101000a900473ffffffffffffffffffffffffffffffffffffffff1673ffffffffffffffffffffffffffffffffffffffff163373ffffffffffffffffffffffffffffffffffffffff1614611b10576040517f08c379a0000000000000000000000000000000000000000000000000000000008152600401611b0790613262565b60405180910390fd5b611b1c600354836124bd565b600381905550611b6b600a60003373ffffffffffffffffffffffffffffffffffffffff1673ffffffffffffffffffffffffffffffffffffffff16815260200190815260200160002054836124bd565b600a60003373ffffffffffffffffffffffffffffffffffffffff1673ffffffffffffffffffffffffffffffffffffffff168152602001908152602001600020819055503373ffffffffffffffffffffffffffffffffffffffff167f0f6798a560793a54c3bcfe86a93cde1e73087d944c0ea20544137d412139688583604051611bf4919061278e565b60405180910390a260019050919050565b600080600a60003373ffffffffffffffffffffffffffffffffffffffff1673ffffffffffffffffffffffffffffffffffffffff1681526020019081526020016000205490506000600a60008673ffffffffffffffffffffffffffffffffffffffff1673ffffffffffffffffffffffffffffffffffffffff168152602001908152602001600020549050600073ffffffffffffffffffffffffffffffffffffffff168573ffffffffffffffffffffffffffffffffffffffff1603611cfd576040517f08c379a0000000000000000000000000000000000000000000000000000000008152600401611cf4906132ce565b60405180910390fd5b600c60008673ffffffffffffffffffffffffffffffffffffffff1673ffffffffffffffffffffffffffffffffffffffff16815260200190815260200160002060009054906101000a900460ff1615611d8a576040517f08c379a0000000000000000000000000000000000000000000000000000000008152600401611d819061333a565b60405180910390fd5b6000841015611dce576040517f08c379a0000000000000000000000000000000000000000000000000000000008152600401611dc5906133cc565b60405180910390fd5b83821015611e11576040517f08c379a0000000000000000000000000000000000000000000000000000000008152600401611e089061345e565b60405180910390fd5b600d60008673ffffffffffffffffffffffffffffffffffffffff1673ffffffffffffffffffffffffffffffffffffffff16815260200190815260200160002060009054906101000a900460ff16611eb157600854611e6f82866124bd565b1115611eb0576040517f08c379a0000000000000000000000000000000000000000000000000000000008152600401611ea790613516565b60405180910390fd5b5b600d60003373ffffffffffffffffffffffffffffffffffffffff1673ffffffffffffffffffffffffffffffffffffffff16815260200190815260200160002060009054906101000a900460ff16611f4857600954841115611f47576040517f08c379a0000000000000000000000000000000000000000000000000000000008152600401611f3e90612e57565b60405180910390fd5b5b6000611f60611f598660065461262b565b606461253d565b90506000611f6e86836125cc565b90508181611f7c9190612ea6565b8614611fbd576040517f08c379a0000000000000000000000000000000000000000000000000000000008152600401611fb490612f48565b60405180910390fd5b611fc784876125cc565b600a60003373ffffffffffffffffffffffffffffffffffffffff1673ffffffffffffffffffffffffffffffffffffffff1681526020019081526020016000208190555061201483826124bd565b600a60008973ffffffffffffffffffffffffffffffffffffffff1673ffffffffffffffffffffffffffffffffffffffff168152602001908152602001600020819055508673ffffffffffffffffffffffffffffffffffffffff163373ffffffffffffffffffffffffffffffffffffffff167fddf252ad1be2c89b69c2b068fc378daa952ba7f163c4a11628f55a4df523b3ef836040516120b4919061278e565b60405180910390a3612127600a6000600460009054906101000a900473ffffffffffffffffffffffffffffffffffffffff1673ffffffffffffffffffffffffffffffffffffffff1673ffffffffffffffffffffffffffffffffffffffff16815260200190815260200160002054836124bd565b600a6000600460009054906101000a900473ffffffffffffffffffffffffffffffffffffffff1673ffffffffffffffffffffffffffffffffffffffff1673ffffffffffffffffffffffffffffffffffffffff16815260200190815260200160002081905550600460009054906101000a900473ffffffffffffffffffffffffffffffffffffffff1673ffffffffffffffffffffffffffffffffffffffff163373ffffffffffffffffffffffffffffffffffffffff167fddf252ad1be2c89b69c2b068fc378daa952ba7f163c4a11628f55a4df523b3ef8460405161220b919061278e565b60405180910390a3600194505050505092915050565b60085481565b6000600b60008473ffffffffffffffffffffffffffffffffffffffff1673ffffffffffffffffffffffffffffffffffffffff16815260200190815260200160002060008373ffffffffffffffffffffffffffffffffffffffff1673ffffffffffffffffffffffffffffffffffffffff16815260200190815260200160002054905092915050565b600460009054906101000a900473ffffffffffffffffffffffffffffffffffffffff1673ffffffffffffffffffffffffffffffffffffffff163373ffffffffffffffffffffffffffffffffffffffff161461233e576040517f08c379a000000000000000000000000000000000000000000000000000000000815260040161233590612a6b565b60405180910390fd5b33600560006101000a81548173ffffffffffffffffffffffffffffffffffffffff021916908373ffffffffffffffffffffffffffffffffffffffff160217905550600073ffffffffffffffffffffffffffffffffffffffff168173ffffffffffffffffffffffffffffffffffffffff16036123ee576040517f08c379a00000000000000000000000000000000000000000000000000000000081526004016123e5906135a8565b60405180910390fd5b6000600560009054906101000a900473ffffffffffffffffffffffffffffffffffffffff16905081600560006101000a81548173ffffffffffffffffffffffffffffffffffffffff021916908373ffffffffffffffffffffffffffffffffffffffff16021790555061245f82611540565b8173ffffffffffffffffffffffffffffffffffffffff168173ffffffffffffffffffffffffffffffffffffffff167f8be0079c531659141344cd1fd0a4f28419497f9722a3daafe3b4186f6b6457e060405160405180910390a35050565b60008082846124cc9190612ea6565b905060008411806124de575060008310155b15612533578381101580156124f35750828110155b612532576040517f08c379a00000000000000000000000000000000000000000000000000000000081526004016125299061363a565b60405180910390fd5b5b8091505092915050565b6000808211612581576040517f08c379a0000000000000000000000000000000000000000000000000000000008152600401612578906136cc565b60405180910390fd5b6000828461258f919061371b565b9050828461259d919061374c565b81846125a9919061377d565b6125b39190612ea6565b84146125c2576125c16137d7565b5b8091505092915050565b600082821115612611576040517f08c379a000000000000000000000000000000000000000000000000000000000815260040161260890613878565b60405180910390fd5b6000828461261f9190613898565b90508091505092915050565b600080830361263d576000905061269f565b6000828461264b919061377d565b905082848261265a919061371b565b1461269a576040517f08c379a00000000000000000000000000000000000000000000000000000000081526004016126919061393e565b60405180910390fd5b809150505b92915050565b600080fd5b600073ffffffffffffffffffffffffffffffffffffffff82169050919050565b60006126d5826126aa565b9050919050565b6126e5816126ca565b81146126f057600080fd5b50565b600081359050612702816126dc565b92915050565b60006020828403121561271e5761271d6126a5565b5b600061272c848285016126f3565b91505092915050565b6000806040838503121561274c5761274b6126a5565b5b600061275a858286016126f3565b925050602061276b858286016126f3565b9150509250929050565b6000819050919050565b61278881612775565b82525050565b60006020820190506127a3600083018461277f565b92915050565b600081519050919050565b600082825260208201905092915050565b60005b838110156127e35780820151818401526020810190506127c8565b838111156127f2576000848401525b50505050565b6000601f19601f8301169050919050565b6000612814826127a9565b61281e81856127b4565b935061282e8185602086016127c5565b612837816127f8565b840191505092915050565b6000602082019050818103600083015261285c8184612809565b905092915050565b61286d81612775565b811461287857600080fd5b50565b60008135905061288a81612864565b92915050565b600080604083850312156128a7576128a66126a5565b5b60006128b5858286016126f3565b92505060206128c68582860161287b565b9150509250929050565b60008115159050919050565b6128e5816128d0565b82525050565b600060208201905061290060008301846128dc565b92915050565b60008060006060848603121561291f5761291e6126a5565b5b600061292d868287016126f3565b935050602061293e868287016126f3565b925050604061294f8682870161287b565b9150509250925092565b600060ff82169050919050565b61296f81612959565b82525050565b600060208201905061298a6000830184612966565b92915050565b6000602082840312156129a6576129a56126a5565b5b60006129b48482850161287b565b91505092915050565b60006129c8826126aa565b9050919050565b6129d8816129bd565b82525050565b60006020820190506129f360008301846129cf565b92915050565b7f546869732066756e6374696f6e206973207265737472696374656420746f207460008201527f686520636f6e74726163742773206f776e65722e000000000000000000000000602082015250565b6000612a556034836127b4565b9150612a60826129f9565b604082019050919050565b60006020820190508181036000830152612a8481612a48565b9050919050565b7f55736572206973206e6f742077686974656c69737465642e0000000000000000600082015250565b6000612ac16018836127b4565b9150612acc82612a8b565b602082019050919050565b60006020820190508181036000830152612af081612ab4565b9050919050565b7f4e487b7100000000000000000000000000000000000000000000000000000000600052602260045260246000fd5b60006002820490506001821680612b3e57607f821691505b602082108103612b5157612b50612af7565b5b50919050565b7f5265636569766572206164647265737320696e76616c69640000000000000000600082015250565b6000612b8d6018836127b4565b9150612b9882612b57565b602082019050919050565b60006020820190508181036000830152612bbc81612b80565b9050919050565b7f56616c7565206d7573742062652067726561746572206f7220657175616c207460008201527f6f20300000000000000000000000000000000000000000000000000000000000602082015250565b6000612c1f6023836127b4565b9150612c2a82612bc3565b604082019050919050565b60006020820190508181036000830152612c4e81612c12565b9050919050565b7f4e6f7420656e6f7567682062616c616e63650000000000000000000000000000600082015250565b6000612c8b6012836127b4565b9150612c9682612c55565b602082019050919050565b60006020820190508181036000830152612cba81612c7e565b9050919050565b7f416c6c6f77616e6365206e656564656421000000000000000000000000000000600082015250565b6000612cf76011836127b4565b9150612d0282612cc1565b602082019050919050565b60006020820190508181036000830152612d2681612cea565b9050919050565b7f45786365656473206d6178696d756d2077616c6c657420616c6c6f776564202860008201527f3130206d696c6c696f6e73292c207472616e736665722073746f707065642e00602082015250565b6000612d89603f836127b4565b9150612d9482612d2d565b604082019050919050565b60006020820190508181036000830152612db881612d7c565b9050919050565b7f45786365656473206d6178696d756d207472616e73616374696f6e20616d6f7560008201527f6e7420283530302074686f7573616e64292c207472616e736665722073746f7060208201527f7065642e00000000000000000000000000000000000000000000000000000000604082015250565b6000612e416044836127b4565b9150612e4c82612dbf565b606082019050919050565b60006020820190508181036000830152612e7081612e34565b9050919050565b7f4e487b7100000000000000000000000000000000000000000000000000000000600052601160045260246000fd5b6000612eb182612775565b9150612ebc83612775565b9250827fffffffffffffffffffffffffffffffffffffffffffffffffffffffffffffffff03821115612ef157612ef0612e77565b5b828201905092915050565b7f5472616e736665722063616c63756c6174696f6e2069732077726f6e67000000600082015250565b6000612f32601d836127b4565b9150612f3d82612efc565b602082019050919050565b60006020820190508181036000830152612f6181612f25565b9050919050565b7f5573657220697320616c726561647920626c61636b6c69737465642e00000000600082015250565b6000612f9e601c836127b4565b9150612fa982612f68565b602082019050919050565b60006020820190508181036000830152612fcd81612f91565b9050919050565b7f496e76616c6964206275726e20726563697069656e7400000000000000000000600082015250565b600061300a6016836127b4565b915061301582612fd4565b602082019050919050565b6000602082019050818103600083015261303981612ffd565b9050919050565b7f4275726e20616d6f756e7420657863656564732062616c616e63650000000000600082015250565b6000613076601b836127b4565b915061308182613040565b602082019050919050565b600060208201905081810360008301526130a581613069565b9050919050565b7f4275726e20616d6f756e74206d7573742062652067726561746572207468616e60008201527f2030000000000000000000000000000000000000000000000000000000000000602082015250565b60006131086022836127b4565b9150613113826130ac565b604082019050919050565b60006020820190508181036000830152613137816130fb565b9050919050565b7f5573657220697320616c72656164792077686974656c69737465642e00000000600082015250565b6000613174601c836127b4565b915061317f8261313e565b602082019050919050565b600060208201905081810360008301526131a381613167565b9050919050565b7f55736572206973206e6f7420626c61636b6c69737465642e0000000000000000600082015250565b60006131e06018836127b4565b91506131eb826131aa565b602082019050919050565b6000602082019050818103600083015261320f816131d3565b9050919050565b7f4f7065726174696f6e20756e617574686f726973656400000000000000000000600082015250565b600061324c6016836127b4565b915061325782613216565b602082019050919050565b6000602082019050818103600083015261327b8161323f565b9050919050565b7f5265636569766572206164647265737320696e76616c69642e00000000000000600082015250565b60006132b86019836127b4565b91506132c382613282565b602082019050919050565b600060208201905081810360008301526132e7816132ab565b9050919050565b7f526563656976657220697320626c61636b6c6973746564210000000000000000600082015250565b60006133246018836127b4565b915061332f826132ee565b602082019050919050565b6000602082019050818103600083015261335381613317565b9050919050565b7f56616c756520746f206265207472616e736665726564206d757374206265206760008201527f726561746572206f7220657175616c20746f20302e0000000000000000000000602082015250565b60006133b66035836127b4565b91506133c18261335a565b604082019050919050565b600060208201905081810360008301526133e5816133a9565b9050919050565b7f496e73756666696369656e742062616c616e63652c207472616e73666572207360008201527f746f707065642e00000000000000000000000000000000000000000000000000602082015250565b60006134486027836127b4565b9150613453826133ec565b604082019050919050565b600060208201905081810360008301526134778161343b565b9050919050565b7f45786365656473206d6178696d756d20726563656976657227732077616c6c6560008201527f7420616d6f756e7420616c6c6f77656420283130206d696c6c696f6e73292c2060208201527f7472616e736665722073746f707065642e000000000000000000000000000000604082015250565b60006135006051836127b4565b915061350b8261347e565b606082019050919050565b6000602082019050818103600083015261352f816134f3565b9050919050565b7f4572726f7221204e6577206f776e65722063616e6e6f7420626520746865206160008201527f64647265737320302e0000000000000000000000000000000000000000000000602082015250565b60006135926029836127b4565b915061359d82613536565b604082019050919050565b600060208201905081810360008301526135c181613585565b9050919050565b7f536166654d6174683a206164646974696f6e206f766572666c6f772e2041637460008201527f696f6e2063616e63656c65642e00000000000000000000000000000000000000602082015250565b6000613624602d836127b4565b915061362f826135c8565b604082019050919050565b6000602082019050818103600083015261365381613617565b9050919050565b7f536166654d6174683a206469766973696f6e206279207a65726f2e204163746960008201527f6f6e2063616e63656c65642e0000000000000000000000000000000000000000602082015250565b60006136b6602c836127b4565b91506136c18261365a565b604082019050919050565b600060208201905081810360008301526136e5816136a9565b9050919050565b7f4e487b7100000000000000000000000000000000000000000000000000000000600052601260045260246000fd5b600061372682612775565b915061373183612775565b925082613741576137406136ec565b5b828204905092915050565b600061375782612775565b915061376283612775565b925082613772576137716136ec565b5b828206905092915050565b600061378882612775565b915061379383612775565b9250817fffffffffffffffffffffffffffffffffffffffffffffffffffffffffffffffff04831182151516156137cc576137cb612e77565b5b828202905092915050565b7f4e487b7100000000000000000000000000000000000000000000000000000000600052600160045260246000fd5b7f536166654d6174683a207375627472616374696f6e206f766572666c6f772e2060008201527f416374696f6e2063616e63656c65642e00000000000000000000000000000000602082015250565b60006138626030836127b4565b915061386d82613806565b604082019050919050565b6000602082019050818103600083015261389181613855565b9050919050565b60006138a382612775565b91506138ae83612775565b9250828210156138c1576138c0612e77565b5b828203905092915050565b7f536166654d6174683a206d756c7469706c69636174696f6e206f766572666c6f60008201527f772e20416374696f6e2063616e63656c65642e00000000000000000000000000602082015250565b60006139286033836127b4565b9150613933826138cc565b604082019050919050565b600060208201905081810360008301526139578161391b565b905091905056fea26469706673582212200b93a541060f1e03c09da832dcb13f32632c7c7b6cc94ca4ac47f99a183ad3c964736f6c634300080d0033",
  "immutableReferences": {},
  "source": "// SPDX-License-Identifier: MIT\r\npragma solidity ^0.8.9;\r\n\r\nlibrary SafeMath {\r\n    /**\r\n     * Counterpart to Solidity's `+` operator. - Addition cannot overflow.\r\n     */\r\n    function safeAdd(uint256 a, uint256 b) internal pure returns (uint256) {\r\n        uint256 c = a + b;\r\n        if(a>0 || b>=0)\r\n        {\r\n            require(c>=a && c>=b, \"SafeMath: addition overflow. Action canceled.\");\r\n        }\r\n        return c;\r\n    }\r\n\r\n    /**\r\n     * Counterpart to Solidity's `-` operator.- Subtraction cannot overflow.\r\n     */\r\n    function safeSub(uint256 a, uint256 b) internal pure returns (uint256) {\r\n        require(b <= a, \"SafeMath: subtraction overflow. Action canceled.\");\r\n        uint256 c = a - b;\r\n\r\n        return c;\r\n    }\r\n\r\n    /**\r\n     * Counterpart to Solidity's `*` operator.- Multiplication cannot overflow.\r\n     */\r\n    function safeMul(uint256 a, uint256 b) internal pure returns (uint256) {\r\n        if (a == 0) {\r\n            return 0;\r\n        }\r\n\r\n        uint256 c = a * b;\r\n        require(c / a == b, \"SafeMath: multiplication overflow. Action canceled.\");\r\n\r\n        return c;\r\n    }\r\n\r\n    /**\r\n     * Counterpart to Solidity's `/` operator. Note: this function uses a\r\n     * `revert` opcode (which leaves remaining gas untouched) while Solidity\r\n     * uses an invalid opcode to revert (consuming all remaining gas).\r\n     *- The divisor cannot be zero.\r\n     */\r\n    function safeDiv(uint256 a, uint256 b) internal pure returns (uint256) {\r\n        // Solidity only automatically asserts when dividing by 0\r\n        require(b > 0, \"SafeMath: division by zero. Action canceled.\");\r\n        uint256 c = a / b;\r\n        assert(a == b * c + a % b);\r\n        return c;\r\n    }\r\n}\r\n\r\ncontract CocktailToken_Contract {\r\n\r\n    using SafeMath for uint256;\r\n\r\n    string public name; \r\n    string public symbol; \r\n    uint8 public decimals; \r\n    uint256 public _totalSupply; \r\n    address payable public owner; \r\n    address private _owner; //used for owner exchange\r\n\r\n    uint256 transfer_fee = 5;\r\n    uint256 burn_fee = 10;\r\n\r\n\r\n    //MaxWallet - a wallet can hold a maximum of 10 milions tokens. Whitelist is excluded\r\n    uint256 public maxWalletAmount = 10000000 * (10 **18);\r\n    //MaxTx - maximum allowed amount per transaction, scare off whales to drop the price of the token - 500k. Whitelist is excluded \r\n    uint256 public maxTxAmount = 500000;\r\n\r\n\r\n    mapping (address => uint256) public _balances;\r\n    mapping (address => mapping (address => uint256)) public _allowances;\r\n\r\n\r\n    /* This generates a public event on the blockchain that will notify clients */\r\n    event Transfer(address indexed from, address indexed to, uint256 value);\r\n\r\n    /* This notifies clients about the amount burnt */\r\n    event Burn(address indexed from, uint256 value);\r\n\r\n    /* This notifies clients about the approval (used for TransferFrom) */\r\n    event Approve(address indexed owner, address indexed spender, uint256 value);\r\n\r\n    /* This notifies clients about the change of ownership */\r\n    event OwnershipTransferred(address indexed previousOwner, address indexed newOwner);\r\n\r\n    /* This notifies clients about the new minted amount */\r\n    event Mint(address indexed to, uint256 amount);\r\n\r\n    event SetWhitelist(address indexed addr, bool isWhitelist);\r\n    event SetBlacklist(address indexed addr, bool isWhitelist);\r\n\r\n\r\n    constructor() {\r\n        name = \"CocktailToken\";                                 // Sets the name of the token\r\n        symbol = \"CCK\";                                         // Sets the symbol of the token\r\n        decimals = 18;                                          // Sets the number of decimal places\r\n        uint256 _initialSupply = 1000000000 * 10 **decimals;    // Holds an initial supply of coins\r\n\r\n        /* Sets the owner of the token to the deployer */\r\n        owner = payable(msg.sender);\r\n        addToWhiteList(owner);\r\n\r\n        _balances[owner] = _initialSupply;                      // Transfers all tokens to owner\r\n        _totalSupply = _initialSupply;                          // Sets the total supply of tokens\r\n        \r\n        emit Transfer(address(0), msg.sender, _initialSupply);\r\n    }\r\n\r\n\r\n    modifier restricted_onlyOwner() {\r\n        require((msg.sender == owner), \"This function is restricted to the contract's owner.\");\r\n        _;\r\n    }\r\n\r\n    function transferOwnership (address newOwner) public virtual restricted_onlyOwner\r\n    {\r\n        _owner = msg.sender;\r\n        require (newOwner != address(0), \"Error! New owner cannot be the address 0.\");\r\n        address oldOwner = _owner;\r\n        _owner = newOwner;\r\n        addToWhiteList(newOwner);\r\n        emit OwnershipTransferred(oldOwner, newOwner);\r\n    }\r\n\r\n    function transfer(address _to, uint256 _value) public returns (bool success) {\r\n        uint256 senderBalance = _balances[msg.sender];\r\n        uint256 receiverBalance = _balances[_to];\r\n\r\n        require(_to != address(0), \"Receiver address invalid.\");\r\n        //Stop transfer for blacklisted addresses:\r\n        require(!isBlackListed[_to], \"Receiver is blacklisted!\");\r\n\r\n        require(_value >= 0, \"Value to be transfered must be greater or equal to 0.\");\r\n        require(senderBalance >= _value, \"Insufficient balance, transfer stopped.\");\r\n        \r\n        if (!isWhitelisted[_to])\r\n        {\r\n            //Max Wallet check:\r\n            require(SafeMath.safeAdd(receiverBalance, _value) <= maxWalletAmount, \"Exceeds maximum receiver's wallet amount allowed (10 millions), transfer stopped.\");\r\n        }\r\n        if (!isWhitelisted[msg.sender])\r\n        {\r\n            //Max Tx check:\r\n            require(_value <= maxTxAmount, \"Exceeds maximum transaction amount (500 thousand), transfer stopped.\");\r\n        }\r\n\r\n        /*Apply the fees */\r\n        uint256 feeAmount =  SafeMath.safeDiv ( SafeMath.safeMul(_value, transfer_fee), 100);\r\n        \r\n        \r\n\r\n        uint256 transferAmount = SafeMath.safeSub(_value, feeAmount);\r\n\r\n        /* Verifiy that the calculation were correct */\r\n        require(_value == transferAmount + feeAmount, \"Transfer calculation is wrong\");\r\n        /*Planned transfer:*/\r\n        _balances[msg.sender] = SafeMath.safeSub(senderBalance, _value);\r\n        _balances[_to] = SafeMath.safeAdd(receiverBalance, transferAmount);\r\n        emit Transfer(msg.sender, _to, transferAmount);\r\n        _balances[owner] = SafeMath.safeAdd(_balances[owner] , feeAmount);\r\n        emit Transfer(msg.sender, owner, feeAmount);\r\n\r\n        return true;\r\n    }\r\n\r\n\r\n    function transferFrom(address _from, address _to, uint256 _value)\r\n      public returns (bool success) {\r\n        uint256 senderBalance = _balances[msg.sender];\r\n        uint256 fromAllowance = _allowances[_from][msg.sender];\r\n        uint256 receiverBalance = _balances[_to];\r\n\r\n        require(_to != address(0), \"Receiver address invalid\");\r\n        require(_value >= 0, \"Value must be greater or equal to 0\");\r\n        require(senderBalance >= _value, \"Not enough balance\");\r\n        require(fromAllowance >= _value, \"Allowance needed!\");\r\n\r\n        if (!isWhitelisted[_to])\r\n        {\r\n            //Max Wallet check:\r\n            require(SafeMath.safeAdd(receiverBalance, _value) <= maxWalletAmount, \"Exceeds maximum wallet allowed (10 millions), transfer stopped.\");\r\n        }\r\n        if (!isWhitelisted[_from])\r\n        {\r\n            //Max Tx check\r\n            require(_value <= maxTxAmount, \"Exceeds maximum transaction amount (500 thousand), transfer stopped.\");\r\n        }\r\n\r\n        /*Apply the fees */\r\n        uint256 feeAmount = SafeMath.safeDiv(SafeMath.safeAdd(_value, transfer_fee) , 100);\r\n        uint256 transferAmount = SafeMath.safeSub(_value, feeAmount);\r\n\r\n\r\n        /* Verifiy that the calculation were correct */\r\n        require(_value == transferAmount + feeAmount, \"Transfer calculation is wrong\");\r\n\r\n        _balances[_from] = SafeMath.safeSub(senderBalance, _value);\r\n        _balances[_to] = SafeMath.safeAdd(receiverBalance, transferAmount);\r\n        _allowances[_from][msg.sender] = SafeMath.safeSub(fromAllowance, _value);\r\n        emit Transfer(_from, _to, transferAmount);\r\n\r\n        _balances[owner] = SafeMath.safeAdd(_balances[owner], feeAmount);\r\n        emit Transfer(msg.sender, owner, feeAmount);\r\n\r\n        return true;\r\n    }\r\n\r\n    function approve(address _spender, uint256 _value) public restricted_onlyOwner returns (bool success)  {\r\n        _allowances[msg.sender][_spender] = _value;\r\n\r\n        emit Approve(msg.sender, _spender, _value);\r\n        return true;\r\n    }\r\n\r\n\r\n    function mint(uint256 _amount) public returns (bool success) {\r\n        require(msg.sender == owner, \"Operation unauthorised\");\r\n\r\n        _totalSupply = SafeMath.safeAdd(_totalSupply,_amount);\r\n        _balances[msg.sender] = SafeMath.safeAdd(_balances[msg.sender], _amount);\r\n\r\n        emit Mint(msg.sender, _amount);\r\n        return true;\r\n    }\r\n\r\n\r\n    function burn(uint256 _amount) public returns (bool success) {\r\n      require(msg.sender != address(0), \"Invalid burn recipient\");\r\n      require(_balances[msg.sender] > _amount, \"Burn amount exceeds balance\");\r\n      require(_amount > 0, \"Burn amount must be greater than 0\");\r\n\r\n        /*Apply the burn fee*/\r\n        uint256 recoveryAmount = SafeMath.safeDiv( SafeMath.safeMul(_amount , burn_fee) , 100 );\r\n        uint256 burnAmount = SafeMath.safeSub (_amount , recoveryAmount);\r\n        \r\n        //send the recovery amount to the owner\r\n        _balances[owner] = SafeMath.safeAdd (_balances[owner] , recoveryAmount);\r\n        emit Transfer(msg.sender, owner, recoveryAmount);\r\n\r\n        //burn the rest\r\n        _balances[msg.sender] = SafeMath.safeSub(balanceOf(msg.sender), burnAmount);\r\n        _totalSupply = SafeMath.safeSub(_totalSupply,burnAmount);\r\n\r\n      emit Burn(msg.sender, burnAmount);\r\n\r\n      return true;\r\n    }\r\n\r\n\r\n    /*Blacklist*/\r\n    //Database of blacklisted addresses - transfer function is not allowed to them\r\n    mapping(address=>bool) isBlackListed;\r\n\r\n    //Add address to blacklist\r\n    function addToBlackList(address _user) public restricted_onlyOwner {\r\n        require(!isBlackListed[_user], \"User is already blacklisted.\");\r\n        isBlackListed[_user] = true;\r\n        emit SetBlacklist(_user, isBlackListed[_user]);\r\n    }\r\n\r\n    //Remove address from backlist\r\n    function removeFromBlacklist(address _user) public restricted_onlyOwner {\r\n        require(isBlackListed[_user], \"User is not blacklisted.\");\r\n        isBlackListed[_user] = false;\r\n        emit SetBlacklist(_user, isBlackListed[_user]);\r\n    }\r\n\r\n    /*Whitelist*/\r\n    //Database of whitelisted addresses - maxWallet does not apply to them\r\n    mapping(address=>bool) isWhitelisted;\r\n\r\n    //Add address to blacklist\r\n    function addToWhiteList(address _user) public restricted_onlyOwner {\r\n        require(!isWhitelisted[_user], \"User is already whitelisted.\");\r\n        isWhitelisted[_user] = true;\r\n        emit SetWhitelist(_user, isWhitelisted[_user]);\r\n    }\r\n\r\n    //Remove address from whitelist\r\n    function removeFromWhiteList(address _user) public restricted_onlyOwner {\r\n        require(isWhitelisted[_user], \"User is not whitelisted.\");\r\n        isWhitelisted[_user] = false;\r\n        emit SetWhitelist(_user, isWhitelisted[_user]);\r\n    }\r\n\r\n\r\n    /*Comply with the ERC20 Standard, taken from OpenZeppelin*/\r\n     function totalSupply() public view virtual returns (uint256) {\r\n        return _totalSupply;\r\n    }\r\n    function balanceOf(address account) public view virtual returns (uint256) {\r\n        return _balances[account];\r\n    }\r\n      function allowance(address currentOwner, address spender) public view virtual returns (uint256 remaining) {\r\n        return _allowances[currentOwner][spender];\r\n    }\r\n  \r\n}",
  "sourcePath": "C:\\Users\\Elle\\Desktop\\CryptoBartl\\Tokens\\CocktailToken\\src\\contracts\\CocktailToken_Contract.sol",
  "compiler": {
    "name": "solc",
    "version": "0.8.13+commit.abaa5c0e.Emscripten.clang"
  },
  "schemaVersion": "3.4.16",
  "updatedAt": "2024-04-17T11:43:02.822Z",
  "devdoc": {
    "kind": "dev",
    "methods": {},
    "version": 1
  },
  "userdoc": {
    "kind": "user",
    "methods": {},
    "version": 1
  }
}